{
  "contractName": "Syndication",
  "abi": [
    {
      "inputs": [],
      "stateMutability": "nonpayable",
      "type": "constructor"
    },
    {
      "anonymous": false,
      "inputs": [
        {
          "indexed": false,
          "internalType": "address",
          "name": "_address",
          "type": "address"
        }
      ],
      "name": "LogBorrowerRegistered",
      "type": "event"
    },
    {
      "anonymous": false,
      "inputs": [
        {
          "indexed": false,
          "internalType": "address",
          "name": "_address",
          "type": "address"
        }
      ],
      "name": "LogLenderRegistered",
      "type": "event"
    },
    {
      "anonymous": false,
      "inputs": [
        {
          "indexed": false,
          "internalType": "uint256",
          "name": "_loanID",
          "type": "uint256"
        }
      ],
      "name": "LogLoanHasNewBid",
      "type": "event"
    },
    {
      "anonymous": false,
      "inputs": [
        {
          "indexed": false,
          "internalType": "uint256",
          "name": "_loanID",
          "type": "uint256"
        }
      ],
      "name": "LogLoanStateChange",
      "type": "event"
    },
    {
      "anonymous": false,
      "inputs": [
        {
          "indexed": true,
          "internalType": "address",
          "name": "previousOwner",
          "type": "address"
        },
        {
          "indexed": true,
          "internalType": "address",
          "name": "newOwner",
          "type": "address"
        }
      ],
      "name": "OwnershipTransferred",
      "type": "event"
    },
    {
      "stateMutability": "payable",
      "type": "fallback",
      "payable": true
    },
    {
      "inputs": [
        {
          "internalType": "uint256",
          "name": "",
          "type": "uint256"
        },
        {
          "internalType": "uint256",
          "name": "",
          "type": "uint256"
        }
      ],
      "name": "bids",
      "outputs": [
        {
          "internalType": "uint256",
          "name": "bidAmount",
          "type": "uint256"
        },
        {
          "internalType": "uint256",
          "name": "yieldAsked",
          "type": "uint256"
        },
        {
          "internalType": "string",
          "name": "bidder",
          "type": "string"
        }
      ],
      "stateMutability": "view",
      "type": "function",
      "constant": true
    },
    {
      "inputs": [],
      "name": "loanCount",
      "outputs": [
        {
          "internalType": "uint256",
          "name": "",
          "type": "uint256"
        }
      ],
      "stateMutability": "view",
      "type": "function",
      "constant": true
    },
    {
      "inputs": [
        {
          "internalType": "uint256",
          "name": "",
          "type": "uint256"
        }
      ],
      "name": "loans",
      "outputs": [
        {
          "internalType": "uint256",
          "name": "loanID",
          "type": "uint256"
        },
        {
          "internalType": "string",
          "name": "borrower",
          "type": "string"
        },
        {
          "internalType": "uint256",
          "name": "loanAmount",
          "type": "uint256"
        },
        {
          "internalType": "uint256",
          "name": "committedTotal",
          "type": "uint256"
        },
        {
          "internalType": "enum Syndication.loanState",
          "name": "state",
          "type": "uint8"
        }
      ],
      "stateMutability": "view",
      "type": "function",
      "constant": true
    },
    {
      "inputs": [],
      "name": "owner",
      "outputs": [
        {
          "internalType": "address",
          "name": "",
          "type": "address"
        }
      ],
      "stateMutability": "view",
      "type": "function",
      "constant": true
    },
    {
      "inputs": [],
      "name": "renounceOwnership",
      "outputs": [],
      "stateMutability": "nonpayable",
      "type": "function"
    },
    {
      "inputs": [
        {
          "internalType": "address",
          "name": "newOwner",
          "type": "address"
        }
      ],
      "name": "transferOwnership",
      "outputs": [],
      "stateMutability": "nonpayable",
      "type": "function"
    },
    {
      "inputs": [
        {
          "internalType": "address",
          "name": "_address",
          "type": "address"
        }
      ],
      "name": "retire",
      "outputs": [],
      "stateMutability": "nonpayable",
      "type": "function"
    },
    {
      "inputs": [
        {
          "internalType": "string",
          "name": "_lein",
          "type": "string"
        }
      ],
      "name": "registerBorrower",
      "outputs": [
        {
          "internalType": "string",
          "name": "",
          "type": "string"
        }
      ],
      "stateMutability": "nonpayable",
      "type": "function"
    },
    {
      "inputs": [
        {
          "internalType": "string",
          "name": "_lein",
          "type": "string"
        }
      ],
      "name": "registerLender",
      "outputs": [
        {
          "internalType": "string",
          "name": "",
          "type": "string"
        }
      ],
      "stateMutability": "nonpayable",
      "type": "function"
    },
    {
      "inputs": [
        {
          "internalType": "uint256",
          "name": "_amount",
          "type": "uint256"
        }
      ],
      "name": "requestLoan",
      "outputs": [],
      "stateMutability": "nonpayable",
      "type": "function"
    },
    {
      "inputs": [
        {
          "internalType": "uint256",
          "name": "_loanID",
          "type": "uint256"
        }
      ],
      "name": "getLoanBorrower",
      "outputs": [
        {
          "internalType": "string",
          "name": "",
          "type": "string"
        }
      ],
      "stateMutability": "view",
      "type": "function",
      "constant": true
    },
    {
      "inputs": [
        {
          "internalType": "uint256",
          "name": "_loanID",
          "type": "uint256"
        }
      ],
      "name": "getLoanAmount",
      "outputs": [
        {
          "internalType": "uint256",
          "name": "",
          "type": "uint256"
        }
      ],
      "stateMutability": "view",
      "type": "function",
      "constant": true
    },
    {
      "inputs": [
        {
          "internalType": "uint256",
          "name": "_loanID",
          "type": "uint256"
        }
      ],
      "name": "getLoanCommittedTotal",
      "outputs": [
        {
          "internalType": "uint256",
          "name": "",
          "type": "uint256"
        }
      ],
      "stateMutability": "view",
      "type": "function",
      "constant": true
    },
    {
      "inputs": [
        {
          "internalType": "uint256",
          "name": "_loanID",
          "type": "uint256"
        }
      ],
      "name": "getLoanState",
      "outputs": [
        {
          "internalType": "enum Syndication.loanState",
          "name": "",
          "type": "uint8"
        }
      ],
      "stateMutability": "view",
      "type": "function",
      "constant": true
    },
    {
      "inputs": [
        {
          "internalType": "uint256",
          "name": "_loanID",
          "type": "uint256"
        },
        {
          "internalType": "uint256",
          "name": "_loanAmount",
          "type": "uint256"
        },
        {
          "internalType": "uint256",
          "name": "_rate",
          "type": "uint256"
        }
      ],
      "name": "makeBid",
      "outputs": [],
      "stateMutability": "nonpayable",
      "type": "function"
    },
    {
      "inputs": [
        {
          "internalType": "uint256",
          "name": "_loanID",
          "type": "uint256"
        }
      ],
      "name": "getBids",
      "outputs": [
        {
          "components": [
            {
              "internalType": "uint256",
              "name": "bidAmount",
              "type": "uint256"
            },
            {
              "internalType": "uint256",
              "name": "yieldAsked",
              "type": "uint256"
            },
            {
              "internalType": "string",
              "name": "bidder",
              "type": "string"
            }
          ],
          "internalType": "struct Syndication.Bid[]",
          "name": "",
          "type": "tuple[]"
        }
      ],
      "stateMutability": "view",
      "type": "function",
      "constant": true
    },
    {
      "inputs": [
        {
          "internalType": "uint256",
          "name": "_loanID",
          "type": "uint256"
        }
      ],
      "name": "loanClose",
      "outputs": [],
      "stateMutability": "nonpayable",
      "type": "function"
    }
  ],
  "bytecode": "0x60806040523480156200001157600080fd5b5062000032620000266200005a60201b60201c565b6200006260201b60201c565b600060018190555060008060146101000a81548160ff02191690831515021790555062000126565b600033905090565b60008060009054906101000a900473ffffffffffffffffffffffffffffffffffffffff169050816000806101000a81548173ffffffffffffffffffffffffffffffffffffffff021916908373ffffffffffffffffffffffffffffffffffffffff1602179055508173ffffffffffffffffffffffffffffffffffffffff168173ffffffffffffffffffffffffffffffffffffffff167f8be0079c531659141344cd1fd0a4f28419497f9722a3daafe3b4186f6b6457e060405160405180910390a35050565b6128c080620001366000396000f3fe6080604052600436106101025760003560e01c80638d5d342911610095578063c3045a2911610064578063c3045a2914610372578063ce63094d146103af578063e1ec3c68146103da578063f2fde38b1461041b578063faa18d351461044457610103565b80638d5d3429146102cc5780638da5cb5b146102f55780639e6371ba14610320578063a3991cf21461034957610103565b8063567e75c4116100d1578063567e75c4146101fc57806367aee9af14610239578063715018a6146102765780637b3c4baa1461028d57610103565b8063131d9a271461010857806321953d3814610145578063226546a4146101825780633ef0a2f7146101bf57610103565b5b600080fd5b34801561011457600080fd5b5061012f600480360381019061012a9190611dcb565b61046d565b60405161013c9190611fb2565b60405180910390f35b34801561015157600080fd5b5061016c60048036038101906101679190611dcb565b610585565b6040516101799190611fe3565b60405180910390f35b34801561018e57600080fd5b506101a960048036038101906101a49190611dcb565b6105a5565b6040516101b69190611fe3565b60405180910390f35b3480156101cb57600080fd5b506101e660048036038101906101e19190611dcb565b6105c5565b6040516101f39190612048565b60405180910390f35b34801561020857600080fd5b50610223600480360381019061021e9190611dcb565b61066d565b60405161023091906120e1565b60405180910390f35b34801561024557600080fd5b50610260600480360381019061025b9190612231565b61069a565b60405161026d9190612048565b60405180910390f35b34801561028257600080fd5b5061028b610899565b005b34801561029957600080fd5b506102b460048036038101906102af919061227a565b610921565b6040516102c3939291906122ba565b60405180910390f35b3480156102d857600080fd5b506102f360048036038101906102ee9190611dcb565b6109f0565b005b34801561030157600080fd5b5061030a610ddc565b6040516103179190612339565b60405180910390f35b34801561032c57600080fd5b5061034760048036038101906103429190612380565b610e05565b005b34801561035557600080fd5b50610370600480360381019061036b9190611dcb565b610e9f565b005b34801561037e57600080fd5b5061039960048036038101906103949190612231565b61118b565b6040516103a69190612048565b60405180910390f35b3480156103bb57600080fd5b506103c461138a565b6040516103d19190611fe3565b60405180910390f35b3480156103e657600080fd5b5061040160048036038101906103fc9190611dcb565b611390565b6040516104129594939291906123ad565b60405180910390f35b34801561042757600080fd5b50610442600480360381019061043d9190612380565b61145b565b005b34801561045057600080fd5b5061046b60048036038101906104669190612407565b611553565b005b606060066000838152602001908152602001600020805480602002602001604051908101604052809291908181526020016000905b8282101561057a578382906000526020600020906003020160405180606001604052908160008201548152602001600182015481526020016002820180546104e990612489565b80601f016020809104026020016040519081016040528092919081815260200182805461051590612489565b80156105625780601f1061053757610100808354040283529160200191610562565b820191906000526020600020905b81548152906001019060200180831161054557829003601f168201915b505050505081525050815260200190600101906104a2565b505050509050919050565b600060056000838152602001908152602001600020600301549050919050565b600060056000838152602001908152602001600020600201549050919050565b60606005600083815260200190815260200160002060010180546105e890612489565b80601f016020809104026020016040519081016040528092919081815260200182805461061490612489565b80156106615780601f1061063657610100808354040283529160200191610661565b820191906000526020600020905b81548152906001019060200180831161064457829003601f168201915b50505050509050919050565b60006005600083815260200190815260200160002060040160009054906101000a900460ff169050919050565b606060001515600060149054906101000a900460ff161515146106f2576040517f08c379a00000000000000000000000000000000000000000000000000000000081526004016106e990612507565b60405180910390fd5b8160006106fe82611bae565b1161073e576040517f08c379a000000000000000000000000000000000000000000000000000000000815260040161073590612573565b60405180910390fd5b82600360003373ffffffffffffffffffffffffffffffffffffffff1673ffffffffffffffffffffffffffffffffffffffff1681526020019081526020016000209080519060200190610791929190611cde565b507f7aea57c89ba2bae54b64c713ffb85365cc6af1e631f4ed64437c93d8dca16756336040516107c19190612339565b60405180910390a1600360003373ffffffffffffffffffffffffffffffffffffffff1673ffffffffffffffffffffffffffffffffffffffff168152602001908152602001600020805461081390612489565b80601f016020809104026020016040519081016040528092919081815260200182805461083f90612489565b801561088c5780601f106108615761010080835404028352916020019161088c565b820191906000526020600020905b81548152906001019060200180831161086f57829003601f168201915b5050505050915050919050565b6108a1611bb9565b73ffffffffffffffffffffffffffffffffffffffff166108bf610ddc565b73ffffffffffffffffffffffffffffffffffffffff1614610915576040517f08c379a000000000000000000000000000000000000000000000000000000000815260040161090c906125df565b60405180910390fd5b61091f6000611bc1565b565b6006602052816000526040600020818154811061093d57600080fd5b90600052602060002090600302016000915091505080600001549080600101549080600201805461096d90612489565b80601f016020809104026020016040519081016040528092919081815260200182805461099990612489565b80156109e65780601f106109bb576101008083540402835291602001916109e6565b820191906000526020600020905b8154815290600101906020018083116109c957829003601f168201915b5050505050905083565b60001515600060149054906101000a900460ff16151514610a46576040517f08c379a0000000000000000000000000000000000000000000000000000000008152600401610a3d90612507565b60405180910390fd5b60003390506000610b1d600360008473ffffffffffffffffffffffffffffffffffffffff1673ffffffffffffffffffffffffffffffffffffffff1681526020019081526020016000208054610a9a90612489565b80601f0160208091040260200160405190810160405280929190818152602001828054610ac690612489565b8015610b135780601f10610ae857610100808354040283529160200191610b13565b820191906000526020600020905b815481529060010190602001808311610af657829003601f168201915b5050505050611bae565b11610b2757600080fd5b6040518060a001604052806001548152602001600360008473ffffffffffffffffffffffffffffffffffffffff1673ffffffffffffffffffffffffffffffffffffffff1681526020019081526020016000208054610b8490612489565b80601f0160208091040260200160405190810160405280929190818152602001828054610bb090612489565b8015610bfd5780601f10610bd257610100808354040283529160200191610bfd565b820191906000526020600020905b815481529060010190602001808311610be057829003601f168201915b505050505081526020018381526020016000815260200160006003811115610c2857610c2761206a565b5b815250600560006001548152602001908152602001600020600082015181600001556020820151816001019080519060200190610c66929190611cde565b50604082015181600201556060820151816003015560808201518160040160006101000a81548160ff02191690836003811115610ca657610ca561206a565b5b021790555090505060016000815480929190610cc19061262e565b9190505550506000610d99600360003373ffffffffffffffffffffffffffffffffffffffff1673ffffffffffffffffffffffffffffffffffffffff1681526020019081526020016000208054610d1690612489565b80601f0160208091040260200160405190810160405280929190818152602001828054610d4290612489565b8015610d8f5780601f10610d6457610100808354040283529160200191610d8f565b820191906000526020600020905b815481529060010190602001808311610d7257829003601f168201915b5050505050611bae565b11610dd9576040517f08c379a0000000000000000000000000000000000000000000000000000000008152600401610dd0906126c3565b60405180910390fd5b50565b60008060009054906101000a900473ffffffffffffffffffffffffffffffffffffffff16905090565b610e0d611bb9565b73ffffffffffffffffffffffffffffffffffffffff16610e2b610ddc565b73ffffffffffffffffffffffffffffffffffffffff1614610e81576040517f08c379a0000000000000000000000000000000000000000000000000000000008152600401610e78906125df565b60405180910390fd5b6001600060146101000a81548160ff02191690831515021790555050565b60001515600060149054906101000a900460ff16151514610ef5576040517f08c379a0000000000000000000000000000000000000000000000000000000008152600401610eec90612507565b60405180910390fd5b6000610fc7600360003373ffffffffffffffffffffffffffffffffffffffff1673ffffffffffffffffffffffffffffffffffffffff1681526020019081526020016000208054610f4490612489565b80601f0160208091040260200160405190810160405280929190818152602001828054610f7090612489565b8015610fbd5780601f10610f9257610100808354040283529160200191610fbd565b820191906000526020600020905b815481529060010190602001808311610fa057829003601f168201915b5050505050611bae565b11610fd157600080fd5b611140600360003373ffffffffffffffffffffffffffffffffffffffff1673ffffffffffffffffffffffffffffffffffffffff168152602001908152602001600020805461101e90612489565b80601f016020809104026020016040519081016040528092919081815260200182805461104a90612489565b80156110975780601f1061106c57610100808354040283529160200191611097565b820191906000526020600020905b81548152906001019060200180831161107a57829003601f168201915b50505050506005600084815260200190815260200160002060010180546110bd90612489565b80601f01602080910402602001604051908101604052809291908181526020018280546110e990612489565b80156111365780601f1061110b57610100808354040283529160200191611136565b820191906000526020600020905b81548152906001019060200180831161111957829003601f168201915b5050505050611c85565b61114957600080fd5b60036005600083815260200190815260200160002060040160006101000a81548160ff021916908360038111156111835761118261206a565b5b021790555050565b606060001515600060149054906101000a900460ff161515146111e3576040517f08c379a00000000000000000000000000000000000000000000000000000000081526004016111da90612507565b60405180910390fd5b8160006111ef82611bae565b1161122f576040517f08c379a000000000000000000000000000000000000000000000000000000000815260040161122690612573565b60405180910390fd5b82600460003373ffffffffffffffffffffffffffffffffffffffff1673ffffffffffffffffffffffffffffffffffffffff1681526020019081526020016000209080519060200190611282929190611cde565b507faf4ff1dbcd13c418b46d1d1bf77b33c6dafcf63aeb0400ece5cc5be53e5f8a25336040516112b29190612339565b60405180910390a1600460003373ffffffffffffffffffffffffffffffffffffffff1673ffffffffffffffffffffffffffffffffffffffff168152602001908152602001600020805461130490612489565b80601f016020809104026020016040519081016040528092919081815260200182805461133090612489565b801561137d5780601f106113525761010080835404028352916020019161137d565b820191906000526020600020905b81548152906001019060200180831161136057829003601f168201915b5050505050915050919050565b60015481565b60056020528060005260406000206000915090508060000154908060010180546113b990612489565b80601f01602080910402602001604051908101604052809291908181526020018280546113e590612489565b80156114325780601f1061140757610100808354040283529160200191611432565b820191906000526020600020905b81548152906001019060200180831161141557829003601f168201915b5050505050908060020154908060030154908060040160009054906101000a900460ff16905085565b611463611bb9565b73ffffffffffffffffffffffffffffffffffffffff16611481610ddc565b73ffffffffffffffffffffffffffffffffffffffff16146114d7576040517f08c379a00000000000000000000000000000000000000000000000000000000081526004016114ce906125df565b60405180910390fd5b600073ffffffffffffffffffffffffffffffffffffffff168173ffffffffffffffffffffffffffffffffffffffff161415611547576040517f08c379a000000000000000000000000000000000000000000000000000000000815260040161153e90612755565b60405180910390fd5b61155081611bc1565b50565b60001515600060149054906101000a900460ff161515146115a9576040517f08c379a00000000000000000000000000000000000000000000000000000000081526004016115a090612507565b60405180910390fd5b600061167b600460003373ffffffffffffffffffffffffffffffffffffffff1673ffffffffffffffffffffffffffffffffffffffff16815260200190815260200160002080546115f890612489565b80601f016020809104026020016040519081016040528092919081815260200182805461162490612489565b80156116715780601f1061164657610100808354040283529160200191611671565b820191906000526020600020905b81548152906001019060200180831161165457829003601f168201915b5050505050611bae565b1161168557600080fd5b6000821161169257600080fd5b60006005600085815260200190815260200160002060020154116116b557600080fd5b6003808111156116c8576116c761206a565b5b6005600085815260200190815260200160002060040160009054906101000a900460ff1660038111156116fe576116fd61206a565b5b1061170857600080fd5b600660008481526020019081526020016000206040518060600160405280848152602001838152602001600460003373ffffffffffffffffffffffffffffffffffffffff1673ffffffffffffffffffffffffffffffffffffffff168152602001908152602001600020805461177c90612489565b80601f01602080910402602001604051908101604052809291908181526020018280546117a890612489565b80156117f55780601f106117ca576101008083540402835291602001916117f5565b820191906000526020600020905b8154815290600101906020018083116117d857829003601f168201915b5050505050815250908060018154018082558091505060019003906000526020600020906003020160009091909190915060008201518160000155602082015181600101556040820151816002019080519060200190611856929190611cde565b5050506000600381111561186d5761186c61206a565b5b6005600085815260200190815260200160002060040160009054906101000a900460ff1660038111156118a3576118a261206a565b5b14156119085760016005600085815260200190815260200160002060040160006101000a81548160ff021916908360038111156118e3576118e261206a565b5b0217905550816005600085815260200190815260200160002060030181905550611a97565b6001600381111561191c5761191b61206a565b5b6005600085815260200190815260200160002060040160009054906101000a900460ff1660038111156119525761195161206a565b5b148015611995575060056000848152602001908152602001600020600201548260056000868152602001908152602001600020600301546119939190612775565b105b15611a1a578160056000858152602001908152602001600020600301546119bc9190612775565b600560008581526020019081526020016000206003018190555060016005600085815260200190815260200160002060040160006101000a81548160ff02191690836003811115611a1057611a0f61206a565b5b0217905550611a96565b816005600085815260200190815260200160002060030154611a3c9190612775565b600560008581526020019081526020016000206003018190555060026005600085815260200190815260200160002060040160006101000a81548160ff02191690836003811115611a9057611a8f61206a565b5b02179055505b5b6000611b69600460003373ffffffffffffffffffffffffffffffffffffffff1673ffffffffffffffffffffffffffffffffffffffff1681526020019081526020016000208054611ae690612489565b80601f0160208091040260200160405190810160405280929190818152602001828054611b1290612489565b8015611b5f5780601f10611b3457610100808354040283529160200191611b5f565b820191906000526020600020905b815481529060010190602001808311611b4257829003601f168201915b5050505050611bae565b11611ba9576040517f08c379a0000000000000000000000000000000000000000000000000000000008152600401611ba090612817565b60405180910390fd5b505050565b600081519050919050565b600033905090565b60008060009054906101000a900473ffffffffffffffffffffffffffffffffffffffff169050816000806101000a81548173ffffffffffffffffffffffffffffffffffffffff021916908373ffffffffffffffffffffffffffffffffffffffff1602179055508173ffffffffffffffffffffffffffffffffffffffff168173ffffffffffffffffffffffffffffffffffffffff167f8be0079c531659141344cd1fd0a4f28419497f9722a3daafe3b4186f6b6457e060405160405180910390a35050565b600081604051602001611c989190612873565b6040516020818303038152906040528051906020012083604051602001611cbf9190612873565b6040516020818303038152906040528051906020012014905092915050565b828054611cea90612489565b90600052602060002090601f016020900481019282611d0c5760008555611d53565b82601f10611d2557805160ff1916838001178555611d53565b82800160010185558215611d53579182015b82811115611d52578251825591602001919060010190611d37565b5b509050611d609190611d64565b5090565b5b80821115611d7d576000816000905550600101611d65565b5090565b6000604051905090565b600080fd5b600080fd5b6000819050919050565b611da881611d95565b8114611db357600080fd5b50565b600081359050611dc581611d9f565b92915050565b600060208284031215611de157611de0611d8b565b5b6000611def84828501611db6565b91505092915050565b600081519050919050565b600082825260208201905092915050565b6000819050602082019050919050565b611e2d81611d95565b82525050565b600081519050919050565b600082825260208201905092915050565b60005b83811015611e6d578082015181840152602081019050611e52565b83811115611e7c576000848401525b50505050565b6000601f19601f8301169050919050565b6000611e9e82611e33565b611ea88185611e3e565b9350611eb8818560208601611e4f565b611ec181611e82565b840191505092915050565b6000606083016000830151611ee46000860182611e24565b506020830151611ef76020860182611e24565b5060408301518482036040860152611f0f8282611e93565b9150508091505092915050565b6000611f288383611ecc565b905092915050565b6000602082019050919050565b6000611f4882611df8565b611f528185611e03565b935083602082028501611f6485611e14565b8060005b85811015611fa05784840389528151611f818582611f1c565b9450611f8c83611f30565b925060208a01995050600181019050611f68565b50829750879550505050505092915050565b60006020820190508181036000830152611fcc8184611f3d565b905092915050565b611fdd81611d95565b82525050565b6000602082019050611ff86000830184611fd4565b92915050565b600082825260208201905092915050565b600061201a82611e33565b6120248185611ffe565b9350612034818560208601611e4f565b61203d81611e82565b840191505092915050565b60006020820190508181036000830152612062818461200f565b905092915050565b7f4e487b7100000000000000000000000000000000000000000000000000000000600052602160045260246000fd5b600481106120aa576120a961206a565b5b50565b60008190506120bb82612099565b919050565b60006120cb826120ad565b9050919050565b6120db816120c0565b82525050565b60006020820190506120f660008301846120d2565b92915050565b600080fd5b600080fd5b7f4e487b7100000000000000000000000000000000000000000000000000000000600052604160045260246000fd5b61213e82611e82565b810181811067ffffffffffffffff8211171561215d5761215c612106565b5b80604052505050565b6000612170611d81565b905061217c8282612135565b919050565b600067ffffffffffffffff82111561219c5761219b612106565b5b6121a582611e82565b9050602081019050919050565b82818337600083830152505050565b60006121d46121cf84612181565b612166565b9050828152602081018484840111156121f0576121ef612101565b5b6121fb8482856121b2565b509392505050565b600082601f830112612218576122176120fc565b5b81356122288482602086016121c1565b91505092915050565b60006020828403121561224757612246611d8b565b5b600082013567ffffffffffffffff81111561226557612264611d90565b5b61227184828501612203565b91505092915050565b6000806040838503121561229157612290611d8b565b5b600061229f85828601611db6565b92505060206122b085828601611db6565b9150509250929050565b60006060820190506122cf6000830186611fd4565b6122dc6020830185611fd4565b81810360408301526122ee818461200f565b9050949350505050565b600073ffffffffffffffffffffffffffffffffffffffff82169050919050565b6000612323826122f8565b9050919050565b61233381612318565b82525050565b600060208201905061234e600083018461232a565b92915050565b61235d81612318565b811461236857600080fd5b50565b60008135905061237a81612354565b92915050565b60006020828403121561239657612395611d8b565b5b60006123a48482850161236b565b91505092915050565b600060a0820190506123c26000830188611fd4565b81810360208301526123d4818761200f565b90506123e36040830186611fd4565b6123f06060830185611fd4565b6123fd60808301846120d2565b9695505050505050565b6000806000606084860312156124205761241f611d8b565b5b600061242e86828701611db6565b935050602061243f86828701611db6565b925050604061245086828701611db6565b9150509250925092565b7f4e487b7100000000000000000000000000000000000000000000000000000000600052602260045260246000fd5b600060028204905060018216806124a157607f821691505b602082108114156124b5576124b461245a565b5b50919050565b7f4e636f6e74726163742072657469726564206279206f776e6572000000000000600082015250565b60006124f1601a83611ffe565b91506124fc826124bb565b602082019050919050565b60006020820190508181036000830152612520816124e4565b9050919050565b7f4e616d65206973206e6f74207369676e69666963616e74000000000000000000600082015250565b600061255d601783611ffe565b915061256882612527565b602082019050919050565b6000602082019050818103600083015261258c81612550565b9050919050565b7f4f776e61626c653a2063616c6c6572206973206e6f7420746865206f776e6572600082015250565b60006125c9602083611ffe565b91506125d482612593565b602082019050919050565b600060208201905081810360008301526125f8816125bc565b9050919050565b7f4e487b7100000000000000000000000000000000000000000000000000000000600052601160045260246000fd5b600061263982611d95565b91507fffffffffffffffffffffffffffffffffffffffffffffffffffffffffffffffff82141561266c5761266b6125ff565b5b600182019050919050565b7f4973206e6f742061207265676973746572656420626f72726f77657200000000600082015250565b60006126ad601c83611ffe565b91506126b882612677565b602082019050919050565b600060208201905081810360008301526126dc816126a0565b9050919050565b7f4f776e61626c653a206e6577206f776e657220697320746865207a65726f206160008201527f6464726573730000000000000000000000000000000000000000000000000000602082015250565b600061273f602683611ffe565b915061274a826126e3565b604082019050919050565b6000602082019050818103600083015261276e81612732565b9050919050565b600061278082611d95565b915061278b83611d95565b9250827fffffffffffffffffffffffffffffffffffffffffffffffffffffffffffffffff038211156127c0576127bf6125ff565b5b828201905092915050565b7f4973206e6f7420612072656769737465726564206c656e646572000000000000600082015250565b6000612801601a83611ffe565b915061280c826127cb565b602082019050919050565b60006020820190508181036000830152612830816127f4565b9050919050565b600081905092915050565b600061284d82611e33565b6128578185612837565b9350612867818560208601611e4f565b80840191505092915050565b600061287f8284612842565b91508190509291505056fea26469706673582212209f5544cf6c73eda65a9ac10b13affec3a3cb2076924a00a95c4f62ba0929286764736f6c634300080a0033",
  "immutableReferences": {},
  "source": "// SPDX-License-Identifier: GPL-3.0\n\npragma solidity >=0.7.0 <0.9.0;\n\nimport \"@openzeppelin/contracts/access/Ownable.sol\";\n\n/**\n * @title SyndicatedLoan\n * @author Samir Yahiaoui\n * @dev Request a loan for a given amount and allow a syndicate of borrowers to bid on the loan\n * The process implemented in this contract is a simulation only and no funds transfer occur\n * A potential borrower enters a loan request and various lenders subscribe to the loan committing \n * slices of the loans at an interest rate that corresponds to their perception of the risk\n */\ncontract Syndication is Ownable{\n\n    // address private owner; // This is an alternative to implementing the Ownable pattern\n\n    // struct that implements a loan request attributes\n    struct Loan{\n        uint loanID;\n        string borrower;\n        uint loanAmount;\n        uint committedTotal;\n        loanState state;\n    }\n\n    // struct that implements a lending bid attributes\n    struct Bid{\n        uint bidAmount;\n        uint yieldAsked;\n        string bidder;\n    }\n\n    // flag to retire contract. Can only be reset by an internal function call from the contract owner.\n    bool internal contractRetired;  \n\n    // keeps count of the number of loans in any state\n    uint public loanCount;\n\n    // loan state during the lifetime of the loan\n    enum loanState {initiated, subscribed, fulfilled, closed} loanState state;\n\n    // borrowers list. Borrowers can register only through function registerBorrower\n    mapping(address => string)  borrowers;\n\n    // lender list. Lenders can register as a lender only through function registerLender\n    mapping(address => string)  lenders;\n\n    // List of loans available. Must be public so that borrowers and lenders and others (for instance an auditor) can inspect the list\n    mapping(uint => Loan) public loans;\n\n    // For each loan, the list of bids from lenders is available so that the borrower can pick the best combination of bidders\n    mapping(uint => Bid[]) public bids;\n    \n    constructor(){\n        loanCount = 0;\n        contractRetired = false;\n    }\n\n    /* \n     * Events\n     */\n\n    // <LogLoanStateChange event: _loanID arg>\n    event LogLoanStateChange(uint _loanID);\n\n    // <LogLoanHasNewBid event: _loanID arg>\n    event LogLoanHasNewBid(uint _loanID);\n\n    // <LogBorrowerRegistered event _address arg>\n    event LogBorrowerRegistered(address _address);\n\n    // <LogLenderRegistered event _address arg>\n    event LogLenderRegistered(address _address);\n\n    /*\n     * Modifiers\n     */\n    // <modifier: isRegisteredAsBorrower\n    modifier isRegisteredAsBorrower(){\n        _;\n        require(getLength(borrowers[msg.sender])>0, \"Is not a registered borrower\");\n    }\n    // <modifier: isRegisteredAsLender\n    modifier isRegisteredAsLender(){\n        _;\n        require(getLength(lenders[msg.sender])>0, \"Is not a registered lender\");\n    }\n    // <modifier: nameNotEmpty\n    modifier nameNotEmpty(string memory _name){\n        require(getLength(_name)>0, \"Name is not significant\");\n        _;\n    }\n    // <modifier: contractNotRetired\n    modifier contractNotRetired(){\n        require(contractRetired == false,  \"Ncontract retired by owner\");\n        _;\n    }\n\n    /**\n     * @dev set flag that allows the owner to retire the contract\n     * @param _address address that must be that of the contract owner\n     */\n    function retire(address _address) public onlyOwner{\n        // TODO in the finalized version of the contract, return all amounts sent by lenders before retiring the contract.\n        contractRetired = true;\n    }\n\n    /**\n     * @dev register borrower\n     * @param _lein Legal Entity Identifier of borrower or borrower's name\n     */\n    function registerBorrower(string memory _lein) public contractNotRetired() nameNotEmpty(_lein)  returns(string memory) {\n        borrowers[msg.sender] = _lein;\n        emit LogBorrowerRegistered(msg.sender);\n        return(borrowers[msg.sender]);\n    }\n\n    /**\n     * @dev register lender\n     * @param _lein Legal Entity Identifier of lender or lender's name\n     */\n    function registerLender(string memory _lein) public contractNotRetired() nameNotEmpty(_lein)  returns(string memory){\n        lenders[msg.sender] = _lein;\n        emit LogLenderRegistered(msg.sender);\n        return(lenders[msg.sender]);\n    }\n\n    /**\n     * @dev borrower request a loan (amount required to be positive)\n     * @param _amount loan amount\n     */\n     function requestLoan(uint _amount) public contractNotRetired() isRegisteredAsBorrower() {\n        address sender = msg.sender;\n        require(getLength(borrowers[sender])> 0);\n        loans[loanCount] = Loan(loanCount, borrowers[sender], _amount, 0, loanState.initiated);\n        loanCount++;\n     }\n\n     function getLoanBorrower(uint _loanID) public view returns(string memory){\n         return loans[_loanID].borrower;\n     }\n     function getLoanAmount(uint _loanID) public view returns(uint){\n         return loans[_loanID].loanAmount;\n     }\n     function getLoanCommittedTotal(uint _loanID) public view returns(uint){\n         return loans[_loanID].committedTotal;\n     }\n     function getLoanState(uint _loanID) public view returns(loanState){\n         return loans[_loanID].state;\n     }\n\n     /**\n      * @dev Lender makes a bid on a loan\n      * @param _loanAmount is the amount the lender is willing to lend. This is required to be positive.\n      * @param _rate is the rate at which the lender is willing to lend\n      */\n      function makeBid(uint _loanID, uint _loanAmount, uint _rate) public contractNotRetired() isRegisteredAsLender(){\n          require(getLength(lenders[msg.sender]) > 0);  // lender must first register themself\n          require(_loanAmount > 0); // lender can make only positive bids\n          require(loans[_loanID].loanAmount > 0); // lender can only bid for existing loans\n          require(loans[_loanID].state < loanState.closed); // closed loans no longer accept bids\n          bids[_loanID].push(Bid(_loanAmount, _rate, lenders[msg.sender]));\n          if(loans[_loanID].state == loanState.initiated){\n            loans[_loanID].state = loanState.subscribed;\n            loans[_loanID].committedTotal = _loanAmount;\n          }\n          else if((loans[_loanID].state == loanState.subscribed) && (loans[_loanID].committedTotal + _loanAmount < loans[_loanID].loanAmount)){\n              loans[_loanID].committedTotal = loans[_loanID].committedTotal + _loanAmount;\n              loans[_loanID].state = loanState.subscribed;\n          }\n          else{\n              loans[_loanID].committedTotal = loans[_loanID].committedTotal + _loanAmount;\n              loans[_loanID].state = loanState.fulfilled;\n          }\n      }\n\n    /**\n     * @dev function to get the list of bids on a given loan\n     * @param _loanID loan for which the user want to see the bids\n     */\n    function getBids(uint _loanID) public view returns(Bid[] memory){\n        return bids[_loanID];\n    }\n\n    /**\n    * @dev Borrower can close a loan when the loan got enough bids or simply withdraw the loan request\n    * @param _loanID the loan to which the bid is being made\n    */\n    function loanClose(uint _loanID) public contractNotRetired(){\n        require(getLength(borrowers[msg.sender])>0); // borrower must have registered\n        require(compareStrings(borrowers[msg.sender], loans[_loanID].borrower)); // borrower can only close loans that they initiated\n        loans[_loanID].state = loanState.closed;\n    }\n     \n     /**\n      * @dev helper function to get the length of a string from storage\n      * @param str a string\n      */\n    function getLength(string memory str) internal pure returns(uint) {\n        return bytes(str).length;\n    }\n     /**\n      * @dev helper function to compare two strings from storage\n      * @param a first string\n      * @param b second string\n      */\n    function compareStrings(string memory a, string memory b) internal pure returns (bool) \n    {\n        return (keccak256(abi.encodePacked((a))) == keccak256(abi.encodePacked((b))));\n    }\n\n    /**\n     * @dev fallback function to handle wrong contract usage\n     */\n    fallback() external payable {\n        revert();\n    }\n}",
  "sourcePath": "/home/samir/ConsenSys-BC/contracts/Syndication.sol",
  "compiler": {
    "name": "solc",
    "version": "0.8.10+commit.fc410830.Emscripten.clang"
  },
  "schemaVersion": "3.4.3",
  "updatedAt": "2021-11-26T01:47:29.354Z",
  "networkType": "ethereum",
  "devdoc": {
    "author": "Samir Yahiaoui",
    "details": "Request a loan for a given amount and allow a syndicate of borrowers to bid on the loan The process implemented in this contract is a simulation only and no funds transfer occur A potential borrower enters a loan request and various lenders subscribe to the loan committing  slices of the loans at an interest rate that corresponds to their perception of the risk",
    "kind": "dev",
    "methods": {
      "getBids(uint256)": {
        "details": "function to get the list of bids on a given loan",
        "params": {
          "_loanID": "loan for which the user want to see the bids"
        }
      },
      "loanClose(uint256)": {
        "details": "Borrower can close a loan when the loan got enough bids or simply withdraw the loan request",
        "params": {
          "_loanID": "the loan to which the bid is being made"
        }
      },
      "makeBid(uint256,uint256,uint256)": {
        "details": "Lender makes a bid on a loan",
        "params": {
          "_loanAmount": "is the amount the lender is willing to lend. This is required to be positive.",
          "_rate": "is the rate at which the lender is willing to lend"
        }
      },
      "owner()": {
        "details": "Returns the address of the current owner."
      },
      "registerBorrower(string)": {
        "details": "register borrower",
        "params": {
          "_lein": "Legal Entity Identifier of borrower or borrower's name"
        }
      },
      "registerLender(string)": {
        "details": "register lender",
        "params": {
          "_lein": "Legal Entity Identifier of lender or lender's name"
        }
      },
      "renounceOwnership()": {
        "details": "Leaves the contract without owner. It will not be possible to call `onlyOwner` functions anymore. Can only be called by the current owner. NOTE: Renouncing ownership will leave the contract without an owner, thereby removing any functionality that is only available to the owner."
      },
      "requestLoan(uint256)": {
        "details": "borrower request a loan (amount required to be positive)",
        "params": {
          "_amount": "loan amount"
        }
      },
      "retire(address)": {
        "details": "set flag that allows the owner to retire the contract",
        "params": {
          "_address": "address that must be that of the contract owner"
        }
      },
      "transferOwnership(address)": {
        "details": "Transfers ownership of the contract to a new account (`newOwner`). Can only be called by the current owner."
      }
    },
    "title": "SyndicatedLoan",
    "version": 1
  },
  "userdoc": {
    "kind": "user",
    "methods": {},
    "version": 1
  }
}