{
  "contractName": "Syndication",
  "abi": [
    {
      "inputs": [],
      "stateMutability": "nonpayable",
      "type": "constructor"
    },
    {
      "stateMutability": "payable",
      "type": "fallback"
    },
    {
      "inputs": [
        {
          "internalType": "uint256",
          "name": "",
          "type": "uint256"
        }
      ],
      "name": "bids",
      "outputs": [
        {
          "internalType": "uint256",
          "name": "bidAmount",
          "type": "uint256"
        },
        {
          "internalType": "uint256",
          "name": "yieldAsked",
          "type": "uint256"
        },
        {
          "internalType": "bytes32",
          "name": "bidder",
          "type": "bytes32"
        }
      ],
      "stateMutability": "view",
      "type": "function"
    },
    {
      "inputs": [],
      "name": "loanCount",
      "outputs": [
        {
          "internalType": "uint256",
          "name": "",
          "type": "uint256"
        }
      ],
      "stateMutability": "view",
      "type": "function"
    },
    {
      "inputs": [
        {
          "internalType": "uint256",
          "name": "",
          "type": "uint256"
        }
      ],
      "name": "loans",
      "outputs": [
        {
          "internalType": "uint256",
          "name": "loanID",
          "type": "uint256"
        },
        {
          "internalType": "bytes32",
          "name": "borrower",
          "type": "bytes32"
        },
        {
          "internalType": "uint256",
          "name": "loanAmount",
          "type": "uint256"
        },
        {
          "internalType": "uint256",
          "name": "bidAmount",
          "type": "uint256"
        },
        {
          "internalType": "enum Syndication.loanState",
          "name": "state",
          "type": "uint8"
        }
      ],
      "stateMutability": "view",
      "type": "function"
    },
    {
      "inputs": [
        {
          "internalType": "address",
          "name": "_address",
          "type": "address"
        }
      ],
      "name": "retire",
      "outputs": [],
      "stateMutability": "nonpayable",
      "type": "function"
    },
    {
      "inputs": [
        {
          "internalType": "bytes32",
          "name": "_lein",
          "type": "bytes32"
        }
      ],
      "name": "registerBorrower",
      "outputs": [],
      "stateMutability": "nonpayable",
      "type": "function"
    },
    {
      "inputs": [
        {
          "internalType": "bytes32",
          "name": "_lein",
          "type": "bytes32"
        }
      ],
      "name": "registerLender",
      "outputs": [],
      "stateMutability": "nonpayable",
      "type": "function"
    },
    {
      "inputs": [
        {
          "internalType": "uint256",
          "name": "_amount",
          "type": "uint256"
        }
      ],
      "name": "requestLoan",
      "outputs": [],
      "stateMutability": "nonpayable",
      "type": "function"
    },
    {
      "inputs": [
        {
          "internalType": "uint256",
          "name": "_loanID",
          "type": "uint256"
        }
      ],
      "name": "getLoanBorrower",
      "outputs": [
        {
          "internalType": "bytes32",
          "name": "",
          "type": "bytes32"
        }
      ],
      "stateMutability": "view",
      "type": "function"
    },
    {
      "inputs": [
        {
          "internalType": "uint256",
          "name": "_loanID",
          "type": "uint256"
        }
      ],
      "name": "getLoanAmount",
      "outputs": [
        {
          "internalType": "uint256",
          "name": "",
          "type": "uint256"
        }
      ],
      "stateMutability": "view",
      "type": "function"
    },
    {
      "inputs": [
        {
          "internalType": "uint256",
          "name": "_loanID",
          "type": "uint256"
        }
      ],
      "name": "getLoanBidAmount",
      "outputs": [
        {
          "internalType": "uint256",
          "name": "",
          "type": "uint256"
        }
      ],
      "stateMutability": "view",
      "type": "function"
    },
    {
      "inputs": [
        {
          "internalType": "uint256",
          "name": "_loanID",
          "type": "uint256"
        }
      ],
      "name": "getLoanState",
      "outputs": [
        {
          "internalType": "enum Syndication.loanState",
          "name": "",
          "type": "uint8"
        }
      ],
      "stateMutability": "view",
      "type": "function"
    }
  ],
  "bytecode": "0x608060405234801561001057600080fd5b50336000806101000a81548173ffffffffffffffffffffffffffffffffffffffff021916908373ffffffffffffffffffffffffffffffffffffffff160217905550600060018190555060008060146101000a81548160ff0219169083151502179055506109bf806100826000396000f3fe6080604052600436106100a05760003560e01c8063567e75c411610064578063567e75c4146101c5578063573c60d3146102025780638d5d34291461022b5780639e6371ba14610254578063ce63094d1461027d578063e1ec3c68146102a8576100a1565b806320030b0a146100a6578063226546a4146100cf5780633ef0a2f71461010c5780634423c5f1146101495780635282fe5f14610188576100a1565b5b600080fd5b3480156100b257600080fd5b506100cd60048036038101906100c89190610686565b6102e9565b005b3480156100db57600080fd5b506100f660048036038101906100f191906106e9565b610330565b6040516101039190610725565b60405180910390f35b34801561011857600080fd5b50610133600480360381019061012e91906106e9565b610350565b604051610140919061074f565b60405180910390f35b34801561015557600080fd5b50610170600480360381019061016b91906106e9565b610370565b60405161017f9392919061076a565b60405180910390f35b34801561019457600080fd5b506101af60048036038101906101aa91906106e9565b61039a565b6040516101bc9190610725565b60405180910390f35b3480156101d157600080fd5b506101ec60048036038101906101e791906106e9565b6103ba565b6040516101f99190610818565b60405180910390f35b34801561020e57600080fd5b5061022960048036038101906102249190610686565b6103e7565b005b34801561023757600080fd5b50610252600480360381019061024d91906106e9565b61042e565b005b34801561026057600080fd5b5061027b60048036038101906102769190610891565b61058c565b005b34801561028957600080fd5b50610292610602565b60405161029f9190610725565b60405180910390f35b3480156102b457600080fd5b506102cf60048036038101906102ca91906106e9565b610608565b6040516102e09594939291906108be565b60405180910390f35b80600460003373ffffffffffffffffffffffffffffffffffffffff1673ffffffffffffffffffffffffffffffffffffffff1681526020019081526020016000208190555050565b600060056000838152602001908152602001600020600201549050919050565b600060056000838152602001908152602001600020600101549050919050565b60066020528060005260406000206000915090508060000154908060010154908060020154905083565b600060056000838152602001908152602001600020600301549050919050565b60006005600083815260200190815260200160002060040160009054906101000a900460ff169050919050565b80600360003373ffffffffffffffffffffffffffffffffffffffff1673ffffffffffffffffffffffffffffffffffffffff1681526020019081526020016000208190555050565b60003390506000600360008373ffffffffffffffffffffffffffffffffffffffff1673ffffffffffffffffffffffffffffffffffffffff16815260200190815260200160002050602060ff161161048457600080fd5b6040518060a001604052806001548152602001600360008473ffffffffffffffffffffffffffffffffffffffff1673ffffffffffffffffffffffffffffffffffffffff16815260200190815260200160002054815260200183815260200160008152602001600060038111156104fd576104fc6107a1565b5b8152506005600060015481526020019081526020016000206000820151816000015560208201518160010155604082015181600201556060820151816003015560808201518160040160006101000a81548160ff02191690836003811115610568576105676107a1565b5b02179055509050506001600081548092919061058390610940565b91905055505050565b60008054906101000a900473ffffffffffffffffffffffffffffffffffffffff1673ffffffffffffffffffffffffffffffffffffffff168173ffffffffffffffffffffffffffffffffffffffff16146105e457600080fd5b6001600060146101000a81548160ff02191690831515021790555050565b60015481565b60056020528060005260406000206000915090508060000154908060010154908060020154908060030154908060040160009054906101000a900460ff16905085565b600080fd5b6000819050919050565b61066381610650565b811461066e57600080fd5b50565b6000813590506106808161065a565b92915050565b60006020828403121561069c5761069b61064b565b5b60006106aa84828501610671565b91505092915050565b6000819050919050565b6106c6816106b3565b81146106d157600080fd5b50565b6000813590506106e3816106bd565b92915050565b6000602082840312156106ff576106fe61064b565b5b600061070d848285016106d4565b91505092915050565b61071f816106b3565b82525050565b600060208201905061073a6000830184610716565b92915050565b61074981610650565b82525050565b60006020820190506107646000830184610740565b92915050565b600060608201905061077f6000830186610716565b61078c6020830185610716565b6107996040830184610740565b949350505050565b7f4e487b7100000000000000000000000000000000000000000000000000000000600052602160045260246000fd5b600481106107e1576107e06107a1565b5b50565b60008190506107f2826107d0565b919050565b6000610802826107e4565b9050919050565b610812816107f7565b82525050565b600060208201905061082d6000830184610809565b92915050565b600073ffffffffffffffffffffffffffffffffffffffff82169050919050565b600061085e82610833565b9050919050565b61086e81610853565b811461087957600080fd5b50565b60008135905061088b81610865565b92915050565b6000602082840312156108a7576108a661064b565b5b60006108b58482850161087c565b91505092915050565b600060a0820190506108d36000830188610716565b6108e06020830187610740565b6108ed6040830186610716565b6108fa6060830185610716565b6109076080830184610809565b9695505050505050565b7f4e487b7100000000000000000000000000000000000000000000000000000000600052601160045260246000fd5b600061094b826106b3565b91507fffffffffffffffffffffffffffffffffffffffffffffffffffffffffffffffff82141561097e5761097d610911565b5b60018201905091905056fea2646970667358221220dd5ccafee19cd5a8fc6433abd9d8f75f7c069ae8f3da6b8a440fbf0f0fdbccd864736f6c634300080a0033",
  "immutableReferences": {},
  "source": "// SPDX-License-Identifier: GPL-3.0\n\npragma solidity >=0.7.0 <0.9.0;\n\n/**\n * @title SyndicatedLoan\n * @dev Request a loan for a given ETH amount and allow a syndicate of borrowers to bid on the loan\n */\ncontract Syndication {\n\n    address owner;\n    bool internal contractRetired;\n    uint public loanCount;\n    enum loanState {initiated, subscribed, fulfilled, closed} loanState state;\n\n    struct Loan{\n        uint loanID;\n        bytes32 borrower;\n        uint loanAmount;\n        uint bidAmount;\n        loanState state;\n    }\n    struct Bid{\n        uint bidAmount;\n        uint yieldAsked;\n        bytes32 bidder;\n    }\n    mapping(address => bytes32)  borrowers;\n    mapping(address => bytes32)  lenders;\n    mapping(uint => Loan) public loans;\n    mapping(uint => Bid) public bids;\n    \n    constructor(){\n        owner = msg.sender;\n        loanCount = 0;\n        contractRetired = false;\n    }\n\n    /**\n     * @dev set flag to retire the contract\n     * @param _address address that must be that of the contract owner\n     */\n    function retire(address _address) public {\n        require(_address == owner);\n        // TODO resend amounts in contract\n        contractRetired = true;\n    }\n\n    /**\n     * @dev register borrower\n     * @param _lein Legal Entity Identifier of borrower (lein)\n     */\n    function registerBorrower(bytes32 _lein) public{\n        borrowers[msg.sender] = _lein;\n    }\n\n    /**\n     * @dev register lender\n     * @param _lein Legal Entity Identifier of borrower (lein)\n     */\n    function registerLender(bytes32 _lein) public{\n        lenders[msg.sender] = _lein;\n    }\n\n    /**\n     * @dev borrower request a loan\n     * @param _amount loan amount\n     */\n     function requestLoan(uint _amount) public{\n        address sender = msg.sender;\n        require(borrowers[sender].length > 0);\n        loans[loanCount] = Loan(loanCount, borrowers[sender], _amount, 0, loanState.initiated);\n        loanCount++;\n     }\n\n     function getLoanBorrower(uint _loanID) public view returns(bytes32){\n         return loans[_loanID].borrower;\n     }\n     function getLoanAmount(uint _loanID) public view returns(uint){\n         return loans[_loanID].loanAmount;\n     }\n     function getLoanBidAmount(uint _loanID) public view returns(uint){\n         return loans[_loanID].bidAmount;\n     }\n     function getLoanState(uint _loanID) public view returns(loanState){\n         return loans[_loanID].state;\n     }\n    \n    /**\n     * @dev fallback function to handle wrong contract usage\n     */\n    fallback() external payable {\n        revert();\n    }\n}",
  "sourcePath": "/home/samir/ConsenSys-BC/contracts/Syndication.sol",
  "compiler": {
    "name": "solc",
    "version": "0.8.10+commit.fc410830.Emscripten.clang"
  },
  "schemaVersion": "3.4.3",
  "updatedAt": "2021-11-20T00:31:49.586Z",
  "devdoc": {
    "details": "Request a loan for a given ETH amount and allow a syndicate of borrowers to bid on the loan",
    "kind": "dev",
    "methods": {
      "registerBorrower(bytes32)": {
        "details": "register borrower",
        "params": {
          "_lein": "Legal Entity Identifier of borrower (lein)"
        }
      },
      "registerLender(bytes32)": {
        "details": "register lender",
        "params": {
          "_lein": "Legal Entity Identifier of borrower (lein)"
        }
      },
      "requestLoan(uint256)": {
        "details": "borrower request a loan",
        "params": {
          "_amount": "loan amount"
        }
      },
      "retire(address)": {
        "details": "set flag to retire the contract",
        "params": {
          "_address": "address that must be that of the contract owner"
        }
      }
    },
    "title": "SyndicatedLoan",
    "version": 1
  },
  "userdoc": {
    "kind": "user",
    "methods": {},
    "version": 1
  }
}